:060000000A128A11122809
:10000800FE00030EF1000408F2000A08F300831250
:1000180003137F08F4000A128A15CF2B0A128A11DB
:100028001528F601F701F8018313C4308400E7307E
:100038000A128A1542220A128A1183179030840004
:10004800B0300A128A15422283010A128A112C281A
:1000580083160313C201C20AA93084009030A40099
:100068000408A5001030A60024088400831700089F
:10007800A700A40A25088400831327088000A50A7E
:10008800A60B3828BC01BD01C301BE010A128A159E
:1000980041230A128A110A128A1585220A128A1124
:1000A8000A128A1183240A128A110A128A11362224
:1000B8000A128A110A128A152D220A128A11003090
:1000C8000A128A1598220A128A1183120313240825
:1000D8006B3ECB0025080318013E033ECC000A12F4
:1000E8008A1545250A128A110A128A1507250A1245
:1000F8008A1183120313230883160313C50083127E
:100108000313220883160313C4001530A40024081F
:1001180083120313AD00FF308316031344058312C3
:100128000313AE000030831603134505831203132F
:10013800AF00A9300A128A1184250A128A110E30DA
:1001480083160313A400240883120313AB00A930F9
:100158000A128A1573220A128A1183160313451C80
:10016800B928831203130615BC288312031306113A
:10017800F501F50A06080A128A153C240A128A11A2
:10018800003A0319D92883160313C201C20A0A12B6
:100198008A152D220A128A1183160313C60100300C
:1001A8000A128A15D6250A128A11F5018312031339
:1001B80006080A128A153C240A128A11003A031901
:1001C800F72883160313C201C20A0A128A152D22C0
:1001D8000A128A1183160313C60101300A128A15FE
:1001E800D6250A128A1183160313420803197828A0
:1001F8000A128A1554220A128A118312031321083B
:1002080083160313BD0083120313200883160313F8
:10021800BC00003083120313BB00AF30BC00423077
:10022800BD00CD30AB00CC30AC003D30AD00831606
:1002380003133D0883120313A900831603133C0814
:1002480083120313A8000A128A15AE220A128A1111
:10025800831203132808AE002908AF002A08B0004B
:100268000A128A115A260A128A11831203132B08BA
:10027800BE002C08BF002D08C0000A128A117A237C
:100288000A128A11831203133B0883160313BF0053
:10029800831203133C0883160313C000831203134D
:1002A8003D0883160313C1003F0883120313BB00E4
:1002B80083160313400883120313BC008316031329
:1002C800410883120313BD000A128A1572270A1205
:1002D8008A11831203133B0883160313A40024080E
:1002E800C3003F0883120313BB008316031340089F
:1002F80083120313BC0083160313410883120313EC
:10030800BD008316031343080A128A1591230A12A3
:100318008A11831203132808AF002908B0002A089D
:10032800B1000A128A154A220A128A11831203138B
:100338002F08BE003008BF003108C0000A128A1119
:100348007A230A128A11831203133B0883160313B4
:10035800B900831203133C0883160313BA008312EF
:1003680003133D0883160313BB00390883120313D4
:10037800AE00831603133A0883120313AF008316E3
:1003880003133B0883120313B0000030AB00203086
:10039800AC004130AD000A128A115A260A128A119D
:1003A800831203132B08BB002C08BC002D08BD00CA
:1003B8000A128A1572270A128A11831203133B083C
:1003C80083160313A4002408BE000B30A4002408DD
:1003D80083120313AD00831603134308A500A60177
:1003E800250883120313AE0083160313260883120D
:1003F8000313AF00831603133E08A700A8012708BC
:1004080083120313B00083160313280883120313FF
:10041800B100A9300A128A1184250A128A110430FF
:1004280083160313A400240883120313AB00A93016
:100438000A128A1573220A128A110A128A1554227C
:100448000A128A11831203132108A5002008A400A8
:1004580000300A128A1563220A128A1183160313BE
:10046800C201782883120313AB01AB0A0A128A155A
:10047800DE220A128A11F50120300A128A15F622A4
:100488000A128A110A128A1532220A128A11831252
:100498000313A9002908AB0000300A128A15C622E6
:1004A8000A128A110A128A1532220A128A110A12AB
:1004B8008A15F1230A128A11823083120313AA00C3
:1004C800DD30A900A90B662AAA0B662A6B2A0A1234
:1004D8008A15DE220A128A11F50120300A128A15BD
:1004E800F6220A128A110A128A1532220A128A116F
:1004F80083120313A9002908AB0023300A128A15B6
:10050800C6220A128A110A128A1532220A128A117E
:1005180003300A128A15C6220A128A110A128A158B
:1005280032220A128A110A128A15F1230A128A1132
:10053800213083120313AA007630A900A90BA22A3E
:10054800AA0BA22A00000A128A15DE220A128A11B0
:10055800F50120300A128A15F6220A128A110A12A7
:100568008A1532220A128A1183120313A900290854
:10057800AB0023300A128A15C6220A128A110A12FF
:100588008A1532220A128A1103300A128A15C622E3
:100598000A128A110A128A1532220A128A110A12BA
:1005A8008A15F1230A128A11C73083120313A9008E
:1005B800A90BDC2ADF2A0A128A15DE220A128A11FE
:1005C800F50120300A128A15F6220A128A110A1237
:1005D8008A1532220A128A1183120313A9002908E4
:1005E800AB0023300A128A15C6220A128A110A128F
:1005F8008A1532220A128A1103300A128A15C62273
:100608000A128A110A128A1532220A128A110A1249
:100618008A15F1230A128A11213083120313AA00C2
:100628007630A900A90B162BAA0B162B00000A126C
:100638008A15DE220A128A11F50120300A128A155B
:10064800F6220A128A110A128A1532220A128A110D
:1006580083120313A9002908AB0022300A128A1555
:10066800C6220A128A110A128A1532220A128A111D
:1006780002300A128A15C6220A128A110A128A152B
:1006880032220A128A110A128A15F1230A128A11D1
:10069800213083120313AA007630A900A90B522B2C
:1006A800AA0B522B000083120313A20128300A124E
:1006B8008A112D270A128A1183120313A2010C3002
:1006C8000A128A112D270A128A1183120313A20112
:1006D80001300A128A112D270A128A118312031374
:1006E800A20106300A128A112D270800831203136B
:1006F8003B08C1003C08C2003D08C3000310420D7E
:10070800430DC4004408C7003E08C1003F08C200AA
:100718004008C3000310420D430DC4004408C6003E
:1007280047080319A32B460847020318AA2B4703B7
:10073800FF3A4607C10019304102031CAA2B3E08A4
:10074800BB003F08BC004008BD000800460803196C
:100758000800470846020318B92B4603FF3A470723
:10076800C10019304102031808000630C1004108D1
:10077800C500BD1BC517C01B4517BC17FF30BB05FF
:10078800FF30BC050030BD05BF17FF30BE05FF3088
:10079800BF050030C005460847020318F92B013091
:1007A8000310BE0DBF0DC00DFF3E031DD42B01303D
:1007B800C602460847060319F42B0130C50245084E
:1007C80007390319F42BD32B01300310BD0CBC0CD3
:1007D800BB0CFF3E031DE92B0130C1004108C707D0
:1007E800470846060319222CE82B47084602031837
:1007F800222C01300310BB0DBC0DBD0DFF3E031DA7
:10080800FE2B0130C7024608470603191E2C01308B
:10081800C5024508073903191E2CFD2B01300310AA
:10082800C00CBF0CBE0CFF3E031D132C0130C100D1
:100838004108C60747084606031D122CC51F342C5D
:10084800FF30BB06FF30BC06FF30BD060130BB07DA
:10085800003003180130BC07003003180130BD0711
:10086800451F462CFF30BE06FF30BF06FF30C006CE
:100878000130BE07003003180130BF0700300318ED
:100888000130C007C5013B08BE073C080311031827
:100898003C0A031DBF073D08031103183D0A031D49
:1008A800C007C01F692CFF30BE06FF30BF06FF30EF
:1008B800C0060130BE07003003180130BF07003002
:1008C80003180130C007C501C50A3E08A0003F084B
:1008D800A1004008A2004708C1004108A30045083C
:1008E800C2004208A4000A128A1583268312031341
:1008F8002008BB002108BC002208BD0008008312A4
:100908000313E601E60AEB01EC01ED01E701E8015A
:10091800E901EA0156308400A030D2000408D3006F
:100928001030D4005208840083170008D500D20A7A
:1009380053088400831355088000D30AD40B962CDF
:100948008714071683160313871007120A128A15CD
:1009580015240A128A110A128A155B230A128A11AF
:10096800C7300A128A15F1260A128A118316031350
:10097800480883120313D30083160313470883120E
:100988000313D200530E0F39D200D30152080F3986
:10099800D4005408EB00FF30831603134705831275
:1009A8000313E7000F30831603134805831203135C
:1009B800E8000230C73E840083130008D200840A8E
:1009C8000008D3000A300310D30CD20CFF3E031DDD
:1009D800E72C52083F39D4005408EC000230C73ED7
:1009E80084000008D200840A0008D30006300310EF
:1009F800D30CD20CFF3E031DFB2C52080F39D40038
:100A08005408ED003F30831603134905831203137E
:100A1800E9000030831603134A0583120313EA0022
:100A2800003083160313D5008130D600C7300A1270
:100A38008A1528260A128A110D3083120313D4004E
:100A4800AF30D300C130D200D20B282DD30B282DC4
:100A5800D40B282D0000C7300A128A15F1260A1275
:100A68008A11013083160313CB004030CC00C73005
:100A78000A128A1528260A128A11043083120313CF
:100A8800D4000C30D3003530D200D20B492DD30B13
:100A9800492DD40B492D502DC7300A128A15F1263D
:100AA8000A128A118316031351160E300A128A1578
:100AB80075230A128A11113083160313D3040030E8
:100AC800D404C7300A128A1528260A128A11C73098
:100AD8000A128A15F1260A128A1183160313501670
:100AE800C7300A128A1528260A128A116B30831217
:100AF8000313CB000330CC000A128A1545250800E1
:100B080083120313BA002E30B2003208B500013048
:100B1800AD07FF302D0784000A128A1500200A123B
:100B28008A11B2003208BB003B080319552E253044
:100B38003B060319AB2D3B08B2003A088400320883
:100B4800831380000130B2003208BA078B2DB6013A
:100B58000130AD07FF302D0784000A128A150020E6
:100B68000A128A11BB00003A0319552E643A031978
:100B7800C12D0D3A0319C12D8B2D3508840083131F
:100B88000008B800840A0008B9000230B200320830
:100B9800B507B91FD82D0330B2003208B604B8091A
:100BA800B909B80A0319B90ABB01BB0A05303B06E3
:100BB8000319FF2D3B08B2003207013E84000A12D8
:100BC8008A1500200A128A11B3000A128A15002019
:100BD8000A128A11B40034083902031DF52D3308AE
:100BE8003802031CFF2D0130B2003208BB07053064
:100BF8003B06031DDE2D3608033903190E2E2D3052
:100C0800B2003A0884003208831380000130B20031
:100C18003208BA073B08B2003208B700FF30B2000A
:100C28003208B707370A03198B2D0A30A70000309E
:100C3800A8003708B2003207013E84000A128A155C
:100C480000200A128A11A0000A128A1500200A122E
:100C58008A11A1003908A3003808A2000A128A11D3
:100C6800C1270A128A11831203132108AA00200837
:100C7800A9000A128A159C240A128A1183120313E6
:100C88002708303EB3003308BB003B08B2003A08DF
:100C980084003208831380000130B2003208BA079A
:100CA800122E3A088400831380010800831203136C
:100CB8002B08B1002C08B2002D08B3000310320D28
:100CC800330DB4003408B5003508031D722E00300A
:100CD800AB000030AC000030AD0008002E08B100B9
:100CE8002F08B2003008B3000310320D330DB400E2
:100CF8003408BA003A08031D882E0030AB000030D3
:100D0800AC000030AD0008003A087B3EB100310865
:100D1800B5072B08B1002C08B2002D08B30010301D
:100D28000310B30CB20CB10CFF3E031D942E310816
:100D3800B4003408BA002E08B1002F08B2003008F9
:100D4800B30010300310B30CB20CB10CFF3E031DFE
:100D5800A62E3108B4003408BA068030B100310834
:100D6800BA05AC17AF17FF30AE05FF30AF0500303E
:100D7800B0050030B6000030B7000030B8000730CA
:100D8800B1003108B9002B1CD72E2E08B6072F0842
:100D9800031103182F0A031DB7073008031103189E
:100DA800300A031DB80701300310AD0CAC0CAB0CB6
:100DB800FF3E031DD82E01300310AE0DAF0DB00D50
:100DC800FF3E031DE02E0130B902031DC72E093076
:100DD800B1003108B9002B1CFF2E2E08B6072F08CA
:100DE800031103182F0A031DB7073008031103184E
:100DF800300A031DB80701300310AD0CAC0CAB0C66
:100E0800FF3E031D002F01300310B80CB70CB60CC1
:100E1800FF3E031D082F0130B902031DEF2E3608CF
:100E2800A0003708A1003808A2003508B100310831
:100E3800A3003A08B2003208A4000A128A158326D1
:100E4800831203132008AB002108AC002208AD0070
:100E5800080083120313A6002608F039A30023080C
:100E6800A8002808A30004300310A30CFF3E031DAC
:100E7800382F2308A4002408A80026080F39A30047
:100E88002308A7002203031D532F28081038A300A6
:100E98002308A80027081038A3002308A7000A126F
:100EA8008A15DE220A128A11F50120300A128A15E3
:100EB800F6220A128A110A128A1532220A128A1195
:100EC800770883120313280420380A128A15C622C9
:100ED8000A128A110A128A1532220A128A1177080E
:100EE8008312031328040A128A15C6220A128A11C9
:100EF8000A128A1532220A128A11770883120313FA
:100F0800270420380A128A15C6220A128A110A12E0
:100F18008A1532220A128A117708831203132704CA
:100F28000A128A15C6220A128A110A128A15322250
:100F38000A128A1183120313A3002308A5002708A5
:100F4800EF3977040A128A15C6220A128A110A1280
:100F58008A1532220A128A110A128A15F1230A12F4
:100F68008A11213083120313A4007630A300A30B47
:100F7800BB2FA40BBB2F0000080083120313A5018D
:100F8800A601200821040319FA2FA401A40AA11B11
:100F9800D92F01300310A00DA10DFF3E031DCE2F48
:100FA8000130F5007508A407CB2F01300310A50DFB
:100FB800A60DFF3E031DDA2F21082302031DE62F8D
:100FC80020082202031CEF2F2008A2022108031C7C
:100FD800A303A302251401300310A10CA00CFF3EAB
:100FE800031DF02F0130A402031DD92F2608A100EC
:060FF8002508A00008001E
:1010000008308A000408840A82070034013400345E
:101010000A34003464340034E834033410342734A0
:10102000253464342E34253464344D3468347A34B1
:0A1030002034003425346434003409
:10144E00F701080083120313941608008030F5008C
:10145E007508F700080083160313110EF500F50C3E
:10146E00750C0139080083120313140EF500F50CE8
:10147E00750C0139080064008001840A0406031902
:10148E0000340406432A83120313310830042F0458
:10149E00031908008030B1060800FF3083160313CD
:1014AE005D0583120313A0000330831603135E053C
:1014BE0083120313A100080083120313A800243023
:1014CE00A6002608A0000230A7002708A1002808C1
:1014DE000A128A158925080083120313AC00A20193
:1014EE002B0880380A128A112D270A128A158312A8
:1014FE0003132C080A128A15692408008316031395
:10150E00071387178312031399019A01403083162C
:10151E00031399002430980090308312031398001F
:10152E00080083120313A8002808A6002608A000AE
:10153E000230A7002708A10029300A128A15D024EC
:10154E00831203132A08A5002908A4000800831299
:10155E0003132808A0002908A100A2018E30F5006F
:10156E007508A300A4010A128A1583268312031399
:10157E002008A8002108A9002208AA00080083124A
:10158E000313A0008C1120089300F801831203139B
:10159E008C1908000130F807FF307807F50032305B
:1015AE00750203180800DB2ADC2A0000CD2A8312FC
:1015BE0003138C11831603131114F80183120313F2
:1015CE008C1908000130F807FF307807F50032302B
:1015DE00750203180800F32AF42A0000E52A831284
:1015EE000313A1008C11750C210D9300F8018312C9
:1015FE0003138C1908000130F807FF307807A0009C
:10160E0032302002031808000C2B0D2B0000FE2A8E
:10161E00831203138C118316031391121116F80102
:10162E00831203138C1908000130F807FF30780776
:10163E00F5003230750203180800252B262B00000A
:10164E00172B831203138C11831603139116111685
:10165E00F801831203138C1908000130F807FF30CC
:10166E007807F50032307502031808003E2B3F2B29
:10167E000000302B831203131F10831603138801EF
:10168E00831203138801831603130614861406119E
:10169E0083120313061110141016901683160313DB
:1016AE000C140B178B1708008316031387150716D8
:1016BE002830831203139400803083160313940092
:1016CE0031309300413083120313A100EE30A0009D
:1016DE00A00B6F2BA10B6F2B0000080083120313BE
:1016EE00CD004D080F39CB00CC014B0883160313E8
:1016FE00D104831203134C0883160313D204C7308C
:10170E000A128A1528260A128A15C7300A128A1555
:10171E00F1260800F500750883120313AB00AC0127
:10172E00AD012B08A0002C08A1002D08A2008E30C0
:10173E00AE002E08A300A4010A128A158326831276
:10174E0003132008A8002108A9002208AA000800F7
:10175E00831203138C11831603139115F801BA2B00
:10176E00B82BB92B0000831203138C19C72B013031
:10177E00F807FF307807F50032307502031CB72BDF
:10178E0032307806031DCD2B0030080013080800F8
:10179E000C1CE62B0130F000700883160313C607ED
:1017AE0046304606031DE32B0A128A1527220A121B
:1017BE008A1583160313C601831203130C107408C3
:1017CE00FF0073088A0072088400710E8300FE0EFB
:1017DE007E0E09000A128A153A220A128A15003A5A
:1017EE000319FD2B0A128A152922080083120313EE
:1017FE008C11831603131115F801831203138C1920
:10180E0008000130F807FF307807A00032302002C0
:10181E0003180800122C132C0000042C831203133F
:10182E0007120730A1007D30A000A00B1C2CA10BCD
:10183E001C2C8312031387100730A1007D30A000EB
:10184E00A00B272CA10B272C831203138714033014
:10185E00A2008A30A1005630A000A00B342CA10BA0
:10186E00342CA20B342C3B2C080083120313A20041
:10187E00A301502C4130A100EE30A000A00B452C4E
:10188E00A10B452C0000013083120313A000200889
:10189E00A3070130A000750A562C0310A00DFF3EC1
:1018AE00031D542C20082205031D612C0530230234
:1018BE00031C412C05302306031D672C0130080044
:1018CE000030080083120313AA002A088400831331
:1018DE000008031908002A0884000A308313000642
:1018EE00031D7C2CA201C030902C831203132A08F6
:1018FE0084000D3083130006031D882CA201803056
:10190E00902C83120313A201A20A2A0884008313C7
:10191E0000080A128A112D270A128A150130831225
:10192E000313A9002908AA076C2C83120313270896
:10193E0028040319CB2CAC01AC0AA81BB22C013025
:10194E000310A70DA80DFF3E031DA72C0130AB0001
:10195E002B08AC07A42C28082A02031DB82C270834
:10196E002902031CC02C2708A9022808031CAA035D
:10197E00AA0201300310A80CA70CFF3E031DC12CB8
:10198E000130AC02031DB22C2A08A8002908A700BA
:10199E00080083120313A3002308F5007508A200A4
:1019AE00831603178C18D72C831203132008831267
:1019BE0003178D00013083120313A102210A0319AC
:1019CE000800831603178C18E82C7F30F500750875
:1019DE008C050C14831203170C08F50083120313E5
:1019EE00220884007508831380000130F500750805
:1019FE00A2070130F5007508831203178D07E12C3D
:101A0E008B130A128A15DE220A128A15F501F50ABF
:101A1E0010300A128A15F6220A128A150A128A152F
:101A2E0032220A128A150A128A15AF230A128A1551
:101A3E0083120313A4002408A5000A128A150F238B
:101A4E000A128A150A128A15AF230A128A158312F0
:101A5E000313A4002408A6000A128A1528230A12CA
:101A6E008A150A128A15F1238B17FF30831203137E
:101A7E002605A20001302505A300080083120313DA
:101A8E004B08953ED0004C080318013EFC3ED10099
:101A9E000030500483160313CD00803083120313DD
:101AAE00510483160313CE00C7300A128A15282656
:101ABE000A128A15033083120313CF008A30CE0028
:101ACE005630CD00CD0B692DCE0B692DCF0B692D68
:101ADE00702DFF3083120313500583160313CD00B0
:101AEE007F3083120313510583160313CE00C730C4
:101AFE000A128A1528260A128A15C7300A128A1562
:101B0E00F126080083120313A3002008F5007508C0
:101B1E00A200831603178C18902D8312031323082B
:101B2E00FF3E831203178D007F30F5007508831674
:101B3E0003178C05013083120313A102210A031926
:101B4E000800831603178C18A82D8312031322087E
:101B5E00840083130008831203178C000130F500F4
:101B6E00750883120313A2070130F500750883125E
:101B7E0003178D078312031303108B1B03148B1390
:101B8E00831603170C1555308D00AA308D008C145A
:101B9E000C1183120313031CA12D8B17A12D83127D
:101BAE000313CE00C7300A128A15F1260A128A15BF
:101BBE00FF3083160313CB05FB30CC050030CB046E
:101BCE000330CC04831203134E080319F42DFF3097
:101BDE0083160313CB05FD30CC05C7300A128A15C8
:101BEE0028260A128A15C7300A128A15F1260A12F9
:101BFE008A15152EC7300A128A15F1260A128A1571
:101C0E00023083120313CD008630CC009930CB0006
:101C1E00CB0B0F2ECC0B0F2ECD0B0F2E83160313CB
:101C2E005C1B1B2EDC1E012EFF30CB05FE30CC05BF
:101C3E00FF30DB05BF30DC05C7300A128A152826B7
:101C4E00080083120313A7008B130A128A15DE22D3
:101C5E000A128A15F50110300A128A15F6220A1296
:101C6E008A150A128A1532220A128A150230831236
:101C7E000313A2002208A6000830260203187E2EA7
:101C8E002608A20022072707A30023088400831337
:101C9E000008A400840A0008A50025080A128A1567
:101CAE00C6220A128A150A128A1532220A128A15B9
:101CBE00831203132608A20022072707A300230876
:101CCE008400831300080A128A15C6220A128A1586
:101CDE000A128A1532220A128A1501308312031350
:101CEE00A2002208A60708302602031C472E0A125D
:101CFE008A15F1238B170800831203132308031987
:101D0E008D2E220821042004031DA02E0030A000D9
:101D1E000030A1000030A20008000130A500250807
:101D2E00A30701300310A20CA10CA00CFF3E031D53
:101D3E00992EFE3022050319BB2E942E0130A500DC
:101D4E002508A3070130A007003003180130A107B2
:101D5E00003003180130A20701300310A20CA10CB1
:101D6E00A00CFF3E031DB42EFF3022050319CA2E10
:101D7E00A52E0130A30201300310A00DA10DA20D5E
:101D8E00FF3E031DC32EA11BD02E023023020318CB
:101D9E00C02E2318D82EFF30A0057F30A105FF30AE
:101DAE00A2050310A30C2308A500A601A70110305D
:101DBE000310A50DA60DA70DFF3E031DDF2E250852
:101DCE00A0042608A1042708A20424080319080069
:101DDE00A217080083120313C900CA01C701C70A5C
:101DEE008B130A128A15DE220A128A15F501F50ADC
:101DFE0010300A128A15F6220A128A150A128A154C
:101E0E0032220A128A1583120313CA0120304A02A3
:101E1E000318382F0A128A15AF230A128A15831255
:101E2E000313A2004A08273E840022088313800071
:101E3E001F304A020318292F0A128A150F230A127D
:101E4E008A152E2F0A128A1528230A128A15013096
:101E5E0083120313A2002208CA0720304A02031C71
:101E6E00112F0A128A15F1230A128A158B170A30BE
:101E7E0083120313A2002208C800CA0110304A02BE
:101E8E000318080003144A0D273E8400831300082C
:101E9E00A2004A08A3002307273E84000008A400DE
:101EAE004808A50025074907A60026088400220831
:101EBE008000840A240880000F304806031D692F15
:101ECE00C8016D2F0130A2002208C8070130A20000
:101EDE002208CA07452F831203133B08BF003C0894
:101EEE00C0003D08C1000310400D410DC200420864
:101EFE00C8004808031D8C2F0030BE000030BD0006
:101F0E000030BC000030BB0008003B08BF003C089E
:101F1E00C0003D08C10017300310C10CC00CBF0C2F
:101F2E00FF3E031D932F3F08C2004208C300BC179B
:101F3E00FF30BB05FF30BC050030BD053B08C400BB
:101F4E003C08C5003D08C600C7018E30C802C81F38
:101F5E00CE2F4808803A8F3E0318BE2F0030BE00A9
:101F6E000030BD000030BC000030BB000800013066
:101F7E000310C70CC60CC50CC40CFF3E031DBF2FAF
:101F8E000130BF003F08C8070319E92FBE2F1830D4
:101F9E004802031CE62F0030BE000030BD000030AA
:101FAE00BC000030BB0008000130BF000310C40DA0
:101FBE00C50DC60DC70DBF0BDD2F0130C802480879
:101FCE00031DDB2F43080319F72FC409C509C609E2
:101FDE00C709C40A0319C50A0319C60A0319C70A91
:101FEE004708BE004608BD004508BC004408BB00BB
:021FFE000800D9
:02400E0072FF3F
:0442000000000000BA
:00000001FF
